:020000040800F2
:10000000600600206D0100087501000877010008F6
:10001000790100087B0100087D0100080000000054
:100020000000000000000000000000007F01000848
:10003000810100080000000083010008850100081C
:100040008701000887010008870100088701000870
:100050008701000887010008870100088701000860
:100060008701000887010008870100088701000850
:100070008701000887010008870100088701000840
:100080008701000887010008870100088701000830
:100090008701000887010008870100088701000820
:1000A0008701000887010008870100088701000810
:1000B0008701000887010008870100088701000800
:1000C00087010008870100088701000887010008F0
:1000D00087010008870100088701000887010008E0
:1000E00087010008870100088701000800F002F876
:1000F00000F02CF80AA090E8000C82448344AAF196
:100100000107DA4501D100F021F8AFF2090EBAE893
:100110000F0013F0010F18BFFB1A43F0010318473B
:10012000DC020000EC020000002300240025002671
:10013000103A28BF78C1FBD8520728BF30C148BF4A
:100140000B6070471FB51FBD10B510BD00F031F832
:100150001146FFF7F7FF00F04BF900F04FF803B43A
:10016000FFF7F2FF03BC00F057F800000948804792
:1001700009480047FEE7FEE7FEE7FEE7FEE7FEE789
:10018000FEE7FEE7FEE7FEE704480549054A064BA1
:1001900070470000A1030008ED0000086000002087
:1001A0006006002060020020600200207047704757
:1001B0007047754600F02CF8AE4605006946534678
:1001C00020F00700854618B020B5FFF7DDFFBDE839
:1001D00020404FF000064FF000074FF000084FF0AE
:1001E000000BAC46ACE8C009ACE8C009ACE8C009FB
:1001F000ACE8C00921F007018D46704710B50446F0
:10020000AFF300802046BDE81040FFF7A8BF000014
:10021000004870470000002001491820ABBEFEE7EF
:10022000260002007047000041F20400C4F2020000
:1002300050F8041C41F4803140F8041C50F8041CB0
:100240008903FBD542F20001C4F2020113220A60C5
:1002500001680160016841F480610160016801602A
:10026000016841F48031016001680160016841F476
:10027000E011016050F8041C41F0807140F8041C4A
:1002800050F8041C8901FBD5016821F003010160CD
:10029000016841F002010160016801F00C010829C8
:1002A000FAD1704741F21800C4F20200016841F02F
:1002B0000401016040F60400C4F20100016841F04D
:1002C0004C710160016841F0086101604FF6000166
:1002D000CFF6FF71425842F000724250704780B52D
:1002E00000F002F880BD000070B582B000230193D9
:1002F0000093012214042848011F0D6825430D6056
:1003000054040D6825400095019D6D1C0195009DCC
:10031000002D04D105252D02019EAE42F1D10D68BC
:10032000254201D0009200E00093009B012B31D1C7
:100330001A4D2B6810241C432C600323DC432E68C9
:1003400026402E602E68022426432E600568056034
:1003500005680560950206682E4306603F252D045A
:100360000668AE4306601D252D0406682E43066010
:1003700012060D6815430D600A689201FCD50168EC
:100380009943016001682143016001680C220A4021
:10039000082AFAD102B070BD0410024000200240C9
:1003A00010B50F48016801242143016041680D4ADE
:1003B0000A40426001680C4A0A400260A1040268D7
:1003C0008A4302607F21090442688A4342609F2178
:1003D00009048160FFF783FFE0060449086010BD4F
:1003E000001002400000FFF8FFFFF6FE08ED00E0FD
:1003F000FFF71AFFFFF756FFFEE700000C040008A6
:0C04000000000020600600002801000839
:040000050800016D81
:00000001FF
