:020000040800F2
:10000000F0130020090200082F0200083102000846
:1000100000000000000000000000000000000000E0
:100020000000000000000000000000003302000893
:1000300000000000000000008F0100088107000898
:1000400039020008000000003902000839020008E7
:100050003902000839020008390200083902000894
:1000600000000000390200083902000839020008C7
:1000700039020008390200083902000800000000B7
:1000800039020008000000000000000039020008EA
:100090003902000839020008390200083902000854
:1000A0003902000839020008390200083902000844
:1000B0003902000800F002F800F03EF80CA030C849
:1000C000083824182D18A246671EAB4654465D46D4
:1000D000AC4201D100F030F87E460F3E0FCCB64660
:1000E0000126334200D0FB1AA246AB4633431847E1
:1000F000B01E0000D01E0000103A02D378C878C1AC
:10010000FAD8520701D330C830C101D504680C6059
:10011000704700000023002400250026103A01D378
:1001200078C1FBD8520700D330C100D50B607047AF
:100130001FB51FBD10B510BD00F0BAF91146FFF78D
:10014000F7FF00F07BFB00F0D2F903B4FFF7F2FFFA
:1001500003BC00F0D9F90000084B1968086820308A
:1001600080F30988022080F31488BFF36F8F3FBCAF
:10017000AE4608BC04BC62B6184700000C00002064
:10018000EFF3108072B6704780F310887047EFF37A
:1001900009800E4B1A6820381060F0C044464D4666
:1001A00056465F46F0C008B572B601F0D3F962B6A4
:1001B0000CBC116808681030F0C8A046A946B246C9
:1001C000BB4680F309882038F0C818470C0000208F
:1001D00070B505460C46164602E00FCC0FC5103E22
:1001E000102EFAD2082E02D303CC03C5083E042EEB
:1001F00007D301CC01C5361F03E021782970641CA8
:100200006D1C761EF9D270BD0F4880F308880F4828
:100210000168090E0E4A914205D10E480E4901604F
:100220000E480F4901600F4880470F480047FEE71E
:10023000FEE7FEE7FEE7FEE7FEE700000B480C499D
:100240000C4A0D4B70470000F01300200400000022
:100250001F000000181002400100000000000140D3
:1002600000000000A5070008B5000008F00D002000
:10027000F0130020F00F0020F00F0020F8B5042A42
:100280002CD3830712D00B78491C0370401C521EDC
:1002900083070BD00B78491C0370401C521E830748
:1002A00004D00B78491C0370401C521E8B079B0F17
:1002B00005D0C91ADF002023DE1B08C90AE0FFF7BA
:1002C00087FFF8BD1D4608C9FD401C46B4402C43BD
:1002D00010C0121F042AF5D2F308C91A521EF0D416
:1002E0000B78491C0370401C521EEAD40B78491C41
:1002F0000370401C012AE4D409780170F8BDD2B221
:1003000010B513029A1813049A1800F00EF810BDD5
:1003100001E004C0091F0429FBD28B0701D502802C
:10032000801CC90700D00270704700290BD0C3079A
:1003300002D00270401C491E022904D3830702D553
:100340000280801C891EE3E70022EEE70022DFE73F
:10035000002203098B422CD3030A8B4211D30023C2
:100360009C464EE003460B433CD4002243088B429C
:1003700031D303098B421CD3030A8B4201D3944629
:100380003FE0C3098B4201D3CB01C01A524183091C
:100390008B4201D38B01C01A524143098B4201D3D6
:1003A0004B01C01A524103098B4201D30B01C01A01
:1003B0005241C3088B4201D3CB00C01A524183087B
:1003C0008B4201D38B00C01A524143088B4201D3A8
:1003D0004B00C01A5241411A00D201465241104608
:1003E00070475DE0CA0F00D04942031000D340427D
:1003F000534000229C4603098B422DD3030A8B42B3
:1004000012D3FC22890112BA030A8B420CD3890150
:1004100092118B4208D3890192118B4204D3890136
:100420003AD0921100E08909C3098B4201D3CB0174
:10043000C01A524183098B4201D38B01C01A524129
:1004400043098B4201D34B01C01A524103098B422D
:1004500001D30B01C01A5241C3088B4201D3CB0018
:10046000C01A524183088B4201D38B00C01A5241FB
:10047000D9D243088B4201D34B00C01A5241411AD2
:1004800000D20146634652415B10104601D3404200
:10049000002B00D54942704763465B1000D34042B1
:1004A00001B50020C046C04602BD70477047704786
:1004B000754600F025F8AE46050069465346C0086B
:1004C000C000854618B020B5FFF7B8FE60BC002715
:1004D0004908B6460026C0C5C0C5C0C5C0C5C0C510
:1004E000C0C5C0C5C0C5403D49008D46704710B568
:1004F0000446C046C0462046FFF727FE10BD000058
:10050000004870478C0D002001491820ABBEFEE763
:100510002600020070470000234840690121490479
:10052000084321494861084640690121890408437C
:100530001D4948610920C00600681C49084309217B
:10054000C906086008468088194908400921C9067B
:10055000888008468068174908430921C9068860D1
:100560000846C068114908430921C906C8601248F5
:1005700000680C218843104908600920C006808863
:10058000022188430921C9068880084680680C2119
:1005900008430921C90688600846C0680821084345
:1005A0000921C906C8607047001002405555140063
:1005B00001F9FFFF3FFF3C00000400482E4800689F
:1005C0000121090408432C49086000BF2A4800683B
:1005D0000121490408400028F8D01120274908606B
:1005E00025484068244948600846406848600846F5
:1005F00040680F21890488431F49486008464068C5
:100600000321C90388431C4948600846406801210A
:100610004904884318494860084640680121090494
:1006200008431549486008464068486008464068E5
:100630004860084600680121090608430E49086021
:1006400000BF0D4800680121490608400028F8D085
:1006500009484068800880000749486008464068AB
:10066000022108430449486000BF034840680C2148
:1006700008400828F9D170470010024000200240CD
:100680000848406901214904084306494861092096
:10069000C00600680521C90608430921C90608608B
:1006A00070470000001002400CB50020019000903F
:1006B000314800680121090408432F49086000BF40
:1006C0002D48006801214904084000900198401C11
:1006D00001900098002804D105210903019888425F
:1006E000EED125480068012149040840002802D0C5
:1006F0000120009001E0002000900098012839D1ED
:1007000011201E4908601C4840681B494860084683
:1007100040684860084640687F21C90388431649FD
:10072000486008464068112109040843124948609E
:10073000084600680121090608430F49086000BF08
:100740000D4800680121490608400028F8D00A48F1
:1007500040688008800008494860084640680221D7
:1007600008430549486000BF034840680C21084021
:100770000828F9D10CBD0000001002400020024002
:1007800010B5FFF7FDFC044601F00EFA002803D077
:1007900001200007024948602046FFF7F5FC10BD24
:1007A00000ED00E010B51B4800680121084319491D
:1007B00008600846406818490840164948600846DD
:1007C000006816490840134908600846006801217E
:1007D000890488430F490860084640683F2109049E
:1007E00088430C4948600846C06A00090001C86295
:1007F0000846006BFF2154318843064908630846C8
:10080000406B40084000486300208860FFF74CFFC1
:1008100010BD0000001002400CB8FF08FFFFF6FEFC
:1008200030B47446641E2578641CAB4204D3635D07
:100830005B00E31830BC18471D46F8E71CB5FFF70E
:10084000BDFEFFF71DFFFFF767FE002001210346F5
:1008500020220091019009A10C4801F05FF90020CD
:100860000121034620220091019009A10C4801F0CA
:1008700055F900F02BFE00BFFEE700004E616D65EC
:10088000206F66205461736B20310000F113000863
:100890004E616D65206F66205461736B20320000DD
:1008A000FB130008F8B505460E46174807681748B9
:1008B0000068001D00F0CCFC681C002808D1002E48
:1008C00006D012480168091D114800F000FD1AE029
:1008D0007C190E4800684460BC4207D20B4801688E
:1008E000091D0C48006800F0D7FC0CE007480168BF
:1008F000091D0948006800F0CFFC084800688442E0
:1009000001D206480460F8BD200000200C00002041
:10091000500D002014000020100000203C0000209A
:1009200010B5044600F0E0FC22480068401C214954
:10093000086021480068002808D11F480460084664
:10094000006801280ED100F091F90BE01B48006807
:10095000002807D118480068C06AE16A884201D8B7
:100960001548046016480068401C15490860084690
:10097000006860651349E06A0968884202D9114934
:10098000E06A08601422E16A51430F4A8818211D69
:1009900000F09DFC00F0B6FC08480068002807D075
:1009A00005480068C06AE16A884201D200F0D8FCBC
:1009B00010BD00001C0000200C00002028000020BA
:1009C00038000020240000209C0C002010B500F00E
:1009D0008BFC1148006800281BD1104800F04CFC2B
:1009E0000F4800F049FC0D480E4908600C480E49BC
:1009F000086000220C21052000F008FE064908606E
:100A000008460068002804D008A10348006800F0E8
:100A1000B3FC00F077FC10BD50000020640D0020F6
:100A2000780D0020480000204C000020546D7251C9
:100A30000000000010B516E000F056FC0C48C0683D
:100A4000C468201D00F004FC0A480068401E0949E3
:100A5000086009480068401E0749086000F052FC21
:100A6000204600F061F8044800680028E4D110BD79
:100A70003C0D00201C0000201800002070B504462A
:100A80000D46206C00280ED0216CE0684118E16012
:100A9000A168E068884201D32168E1602846226CA1
:100AA000E168FFF7EBFB70BDF8B504460F4615464D
:100AB00000200090A66B206C002809D12068002837
:100AC0002ED1A06801F00EF900900020A06027E070
:100AD000002D0FD13946226C6068FFF7CFFB216CE7
:100AE000606840186060A1686068884218D3206818
:100AF000606015E03946226CE068FFF7BFFB216CAF
:100B0000E068411AE1602168E068884203D2216C04
:100B1000A068411AE160022D02D1002E00D0761E9D
:100B2000701CA0630098F8BD10B50446206B00F05F
:100B3000FDFB204600F0FAFB10BD00000146094A0B
:100B400012681268002A01D1012200E000220A6026
:100B50000A68002A04D1034A1268D268106800E0CB
:100B6000002070474800002000BFFFF763FF0348E4
:100B700000680128F9D900F0F3FBF6E79C0C00208F
:100B8000FFB581B006460D4617460A9C002D01D1DF
:100B9000246000E02760E66325640121204600F020
:100BA0006BFD5021049808550020A06405B0F0BDED
:100BB000FFB581B00E460A9F0C9C039A9100A522B6
:100BC000206BFFF79CFB216B0398401E80000818E8
:100BD00000900098C008C000009000984007400FA7
:100BE000002801D1012000E00020002802D172B6C7
:100BF00000BFFEE7002E11D0002508E0715D204601
:100C000034304155705D002800D102E06D1C202D6C
:100C1000F4D300BF00215320015502E0002134200D
:100C20000155052F00D30427E762E7650020206601
:100C3000201D00F02EFB2046183000F02AFB246116
:100C40000520C01BA0616462002161666820015517
:100C5000049A0199009800F0EBFA20600B980028A4
:100C600001D00B98046005B0F0BD000010B5002461
:100C700006E0142161430E4A881800F0FDFA641C56
:100C8000052CF6D30B4800F0F7FA0B4800F0F4FA05
:100C90000A4800F0F1FA0A4800F0EEFA094800F0BC
:100CA000EBFA04480849086003480849086010BD89
:100CB0009C0C0020000D0020140D0020280D0020A9
:100CC0003C0D0020500D00201000002014000020DA
:100CD000F8B504460D4616461F4600200090656094
:100CE0002461B5420CD8F01BA169884202D30120CF
:100CF000009011E0211D0948006800F0CDFA0BE0DA
:100D0000BE4204D2BD4202D30120009004E0211D66
:100D10000348006800F0C0FA0098F8BD4C000020BD
:100D20004800002070B5054600F0DEFAA86B0028E8
:100D300001D1012400E0002400F0E4FA204670BD57
:100D400070B5054600F0D0FAA86BE96B884201D176
:100D5000012400E0002400F0D5FA204670BDF1B572
:100D60000098846C0026002C02D172B600BFFEE70A
:100D7000A06BE16B884201D2012000E00020002836
:100D800002D172B600BFFEE7A06BE16B884229D2A8
:100D900045200557002269462046FFF785FE064696
:100DA000681C00280FD1606A002801D1012000E0F2
:100DB0000020002815D12046243000F0D7FF00285D
:100DC0000FD001260DE07F2D01D0012000E0002092
:100DD000002802D172B600BFFEE7681C41B2452070
:100DE000015500BF3046F8BDF8B505460F46174817
:100DF0000068C068C468201D00F02AFA2820005D41
:100E000004210840002817D0A06941192B463A4612
:100E10002046FFF75DFF002814D0002003462A4635
:100E200001460090204601F081F80646002E02D1CE
:100E300072B600BFFEE705E02820005D41084900CA
:100E4000282001552046216A8847F8BD4800002027
:100E500070B586B082E0039800287FDB059C60694E
:100E6000002801D1012000E00020002802D1201D2F
:100E700000F0EEF902A800F0CFF805460398030051
:100E8000FFF7CEFC0A0A0608353D590709363E6AC7
:100E900000BF00BF00BF00BF2820005D0121084344
:100EA000282108550498A269811803462A4620463D
:100EB000FFF70EFF002819D02046216A8847282016
:100EC000005D04210840002810D000200090049804
:100ED000A169421800231946204601F027F806466A
:100EE000002E02D172B600BFFEE700BF35E000BFA2
:100EF0002820005D41084900282001552DE000BF51
:100F00002820005D01210843282108550498A0618C
:100F1000A069002801D0012000E00020002802D1B3
:100F200072B600BFFEE7A06941192B462A4620464B
:100F3000FFF7CEFE11E02820005D022108400028C6
:100F400003D1204600F0F2F905E02820005D4108B9
:100F500049002820015500E000BF00BF002203A97E
:100F60000448006800F002FD002800D073E706B0D6
:100F700070BD000050000020F8B505460C4600F09A
:100F8000E1FA684600F048F806460098002822D1A9
:100F9000002C08D1B54206D800F02CFF3146284677
:100FA000FFF722FF19E0002C08D00C480068006809
:100FB000002801D1012000E000200446A91B2246A0
:100FC0000748006800F0EEF900F014FF002804D193
:100FD00000F0C6F901E000F00DFFF8BD4C00002064
:100FE000500000200A4800680068002801D1012054
:100FF00000E00020002804D00020C043054908601C
:1010000005E003480068C06800680249086070474E
:10101000100000203C00002070B5044600F0BEFD2A
:10102000054607480068854204D200F00BF801200D
:10103000206001E00020206001480560284670BD66
:1010400058000020FEB52EE021480068C068056801
:101050001F480068C068C468201D00F0F9F82046E9
:10106000216A88472820005D0421084000281AD002
:10107000A0694619AE4207D966602461211D144853
:10108000006800F009F90EE0002003462A460146F8
:101090000090204600F04AFF0746002F02D172B6AA
:1010A00000BFFEE700BF0A4800680068002801D1C1
:1010B000012000E000200028C6D00548006801900B
:1010C0000448006802490860024901980860FEBDB2
:1010D000480000204C00002007480068401C002801
:1010E00001D1012000E00020002802D172B600BF2B
:1010F000FEE772B600BFFEE70800002008B500BF9B
:101100006846FFF71BFD044620460099FFF734FFB1
:10111000FFF79EFEF4E770B5044600F0E5F84520C1
:1011200005571EE0A06C002807D02046FFF717FEE9
:10113000002814D000F094F911E0606A002801D171
:10114000012000E00020002808D12046243000F0D3
:101150000DFE002803D000F083F900E003E0681ED4
:1011600045B2002DDEDC00BF0021C94345200155FA
:1011700000F0C8F800F0B8F84420055713E02069E3
:10118000002801D1012000E0002000280AD12046DB
:10119000103000F0EBFD002801D000F061F9681E6E
:1011A00045B200E001E0002DE9DC00BF0021C943A9
:1011B0004420015500F0A6F870BD000070B504464B
:1011C00000256007400F002804D06007400F082169
:1011D000081A041900F0B6F911480068002804D173
:1011E0001048C008C0000E4908600F480068001988
:1011F0000E49884210D20C48006800190A49096853
:10120000884209D906480068074909684518064810
:10121000006800190449086000F0ECFD284670BD24
:10122000040000206400002000000020F80B0000F3
:10123000001F01231B060360001F0160001F034BFA
:10124000036014380260203870470000D91000088D
:1012500001460A694B68886898608B6848685860DE
:101260005068884201D18868506000200861106889
:10127000401E10601068704701460831416000212F
:10128000C943816001460831C160016100210160EC
:10129000704700210161704710B502460B685C1C65
:1012A000002C01D1106907E01046083000E04068CA
:1012B000446824689C42FAD944684C604C68A16038
:1012C000886041600A611468641C146010BD426843
:1012D0004A6093688B609368596091600861036805
:1012E0005B1C03607047000072B605480068401C34
:1012F00003490860BFF34F8FBFF36F8F7047000043
:101300000800002008480068002802D172B600BF1B
:10131000FEE705480068401E03490860084600686B
:10132000002800D162B6704708000020002801D1D3
:10133000012100E00021002902D172B600BFFEE7C2
:101340007047000000200449086188610348486133
:10135000072008617047000000E000E07FBB00004C
:101360000120000703494860BFF34F8FBFF36F8F21
:101370007047000000ED00E010B5024600200BE0D1
:10138000C300074CE358002B05D1C300E150C30054
:101390001B195A6002E0401C0828F1D300BF10BDA1
:1013A0005C0C0020F8B505460E4617462C46FFF7A4
:1013B0009BFF44210857401C002802D100214420F3
:1013C000015545210857401C002802D10021452025
:1013D0000155FFF797FFA06B002805D13A4631462B
:1013E0002046243000F058F82046FFF794FEF8BD60
:1013F00002E0012000F006F8FBE702E0012000F027
:1014000001F8FBE770B504460025002C14D00D4808
:101410000068002801D1012000E00020002802D14E
:1014200072B600BFFEE700F08DF800212046FFF7FE
:1014300039FA00F0DFFC0546002D01D1FFF790FFDF
:1014400070BD0000440000200349096801600349A1
:10145000096841607047000034000020200000202F
:1014600001200149086070473000002070B5044633
:101470000D46002C02D172B600BFFEE70548016898
:1014800018312046FFF708FF01212846FFF70AFA26
:1014900070BD00000C00002070B505460E461446D5
:1014A000002D02D172B600BFFEE70748016818316F
:1014B0002846FFF70CFF002C01D00026F6432146FA
:1014C0003046FFF7EFF970BD0C0000201CB5164840
:1014D00000210B4620220091019014A1154800F034
:1014E0001DFB0446012C02D100F0FCFC0446012C3B
:1014F0000DD172B60020C0430F49086001200F498A
:10150000086000200E49086000F064F80AE0601CE2
:10151000002801D0012000E00020002802D172B68E
:1015200000BFFEE71CBD00004000002049444C45C0
:1015300000000000690B00083C000020280000208B
:101540002000002002480068401C014908607047E4
:10155000440000201A480068002803D001201949DF
:1015600008602CE00020174908601748016805E072
:10157000002902D172B600BFFEE7491E142048437D
:10158000124A1058002801D1012000E00020002854
:10159000EED114224A430D4BD01842685268426083
:1015A000024608324368934202D142685268426060
:1015B0004268D268064B1A600348016000BF70475A
:1015C0004400002030000020240000209C0C00205B
:1015D0000C00002010B50B48006AFF2109040843E5
:1015E000084908620846006AFF21090608430549C0
:1015F0000862FFF7A7FE002003490860FEF7ACFD74
:10160000002010BD00ED00E008000020F7B582B01A
:1016100005460E46002D01D0012000E000200028E4
:1016200002D172B600BFFEE72F467743002E05D0E9
:1016300031463846FEF78CFEA84201D1012000E079
:101640000020002802D172B600BFFEE738465430B1
:10165000FFF7B4FD0446002C0BD00194019C2046FA
:1016600054300190009431462846049B019AFFF7BC
:1016700087FA204605B0F0BD70B505460E462C46EB
:10168000002C02D172B600BFFEE7FFF72DFE216CE1
:10169000E06B484321684018A0600020A0632068E8
:1016A0006060E06B401E216C484321684118E16096
:1016B0000021C9434420015545200155002E10D179
:1016C0002069002801D1012000E00020002810D16D
:1016D0002046103000F04AFB00280AD0FFF740FEF9
:1016E00007E020461030FFF7C7FD20462430FFF703
:1016F000C3FDFFF707FE012070BDFFB585B00646AC
:101700001D46002004903446002C02D172B600BF62
:10171000FEE70698002802D1206C002801D10120A4
:1017200000E00020002802D172B600BFFEE7022DC3
:1017300002D1E06B012801D1012000E00020002847
:1017400002D172B600BFFEE700F016FA002802D1FF
:101750000798002801D1012000E00020002802D1D4
:1017600072B600BFFEE700BFFFF7BEFDA06BE16BE6
:10177000884201D3022D31D1A06B01902A46204628
:101780000699FFF791F90746A06C00280CD0022DAE
:1017900002D1019800281CD12046FFF7E0FA00286A
:1017A00017D0FFF7DDFD14E0606A002801D10120A9
:1017B00000E00020002808D12046243000F0D6FAAE
:1017C000002806D0FFF7CCFD03E0002F01D0FFF783
:1017D000C7FDFFF797FD012009B0F0BD079800286D
:1017E00003D1FFF78FFD0020F6E70498002804D10D
:1017F00002A8FFF729FE01200490FFF783FDFFF701
:10180000A1FEFFF771FD44210857401C002802D1BA
:1018100000214420015545210857401C002802D1D1
:10182000002145200155FFF76DFD07A902A800F032
:1018300039F9002819D12046FFF782FA00280ED086
:10184000204610300799FFF711FE2046FFF763FC92
:1018500000F0D0FA002887D1FFF782FD84E7204608
:10186000FFF759FC00F0C6FA7EE72046FFF753FC6D
:1018700000F0C0FA0020AFE7FFB583B015461E4662
:10188000039C002C02D172B600BFFEE7049800282A
:1018900002D1206C002801D1012000E000200028A6
:1018A00002D172B600BFFEE7022E02D1E06B012822
:1018B00001D1012000E00020002802D172B600BF53
:1018C000FEE7FEF75DFC0290A06BE16B884201D35E
:1018D000022E44D1452001570191A06B0090324661
:1018E00020460499FFF7E0F80198401C002824D115
:1018F000A06C00280ED0022E02D1009800282CD116
:101900002046FFF72CFA002827D0002D25D00120F3
:10191000286022E0606A002801D1012000E0002058
:1019200000281AD12046243000F020FA002814D0D4
:10193000002D12D0012028600FE001987F2801D0EF
:10194000012000E00020002802D172B600BFFEE7AF
:101950000198401C41B245200155012700E00027B5
:101960000298FEF711FC384607B0F0BDF7B584B019
:1019700005460E46002003902C46002C02D172B67C
:1019800000BFFEE7002E02D1206C002801D101200B
:1019900000E00020002802D172B600BFFEE700F090
:1019A000EBF8002802D10698002801D1012000E0C0
:1019B0000020002802D172B600BFFEE700BFFFF78B
:1019C00093FCA76B002F1AD031462046FFF756F83C
:1019D000781EA0632069002801D1012000E00020CA
:1019E000002807D12046103000F0C0F9002801D0AF
:1019F000FFF7B6FCFFF786FC012007B0F0BD0698A4
:101A0000002803D1FFF77EFC0020F6E703980028AA
:101A100004D101A8FFF718FD01200390FFF772FC25
:101A2000FFF790FDFFF760FC44210857401C002899
:101A300002D100214420015545210857401C0028AF
:101A400002D1002145200155FFF75CFC06A901A841
:101A500000F028F8002819D12046FFF763F9002884
:101A60000ED0204624300699FFF700FD2046FFF7F0
:101A700052FB00F0BFF90028A1D1FFF771FC9EE7EF
:101A80002046FFF748FB00F0B5F998E72046FFF73E
:101A900042FB00F0AFF92046FFF744F900288ED052
:101AA0000020AAE770B505460C46002D02D172B69B
:101AB00000BFFEE7002C02D172B600BFFEE7FFF7C1
:101AC00013FC144802686868131A2068401C002838
:101AD00001D1002619E0104928680968884206D01B
:101AE0006868904203D80126002020600DE020683D
:101AF000984207D92068C01A20602846FFF7A4FC46
:101B0000002602E0002020600126FFF7FBFB3046A4
:101B100070BD00002000002034000020FFB585B01B
:101B20001746B800FFF74AFB0646002E0BD06C2084
:101B3000FFF744FB0446002C01D0266304E0304646
:101B4000FFF7F4FB00E00024002C10D000220F99D6
:101B50000E986B4613C303923A46089B0699059864
:101B6000FFF726F82046FEF7DBFE012501E0002501
:101B7000ED43284609B0F0BD06490968002901D1A6
:101B8000012006E004490968002901D1022000E093
:101B90000020704728000020440000200149086808
:101BA0007047000020000020F8B500200090424857
:101BB0000068002878D141480068451C3F4805600E
:101BC000002D1CD13E4800680068002801D101208A
:101BD00000E00020002802D172B600BFFEE73848BE
:101BE0000768384800683649086036480760364854
:101BF0000068401C34490860FFF7F4F900BF33481F
:101C0000006885423DD300BF2D4800680068002869
:101C100001D1012000E00020002804D00020C043B2
:101C20002A4908602CE026480068C068C4686668D5
:101C3000B54202D22548066022E0201DFFF708FBCE
:101C4000A06A002803D020461830FFF701FB204986
:101C5000E06A0968884202D91D49E06A08601422D6
:101C6000E16A51431B4A8818211DFFF730FB1A49CE
:101C7000E06A0968C96A8842C6D301200090C3E7B8
:101C800000BF15480068C06A14214843114908582C
:101C9000012801D90120009010480068002801D0D7
:101CA0000120009005E0FFE70D480068401C0C494A
:101CB00008600098F8BD00004400002020000020CB
:101CC0001000002014000020340000203C00002000
:101CD000240000209C0C00200C000020300000207C
:101CE0002C00002070B505462C460026002D35D06E
:101CF0001B480068844201D1012000E00020002838
:101D000002D172B600BFFEE7206E002802D172B683
:101D100000BFFEE7206E401E2066E16DE06A88424B
:101D20001CD0206E002819D1201DFFF791FAE06D1C
:101D3000E0620521E06A081AA0610A49E06A0968C0
:101D4000884202D90749E06A08601422E16A5143D7
:101D5000054A8818211DFFF7BAFA0126304670BDE2
:101D60000C000020240000209C0C002070B50646CA
:101D7000F068C468002C02D172B600BFFEE72046AE
:101D80001830FFF765FA15480068002813D1201DA8
:101D9000FFF75EFA1249E06A0968884202D91049E1
:101DA000E06A08601422E16A51430E4A8818211D36
:101DB000FFF78DFA04E0214618310B48FFF787FA48
:101DC0000A49E06A0968C96A884204D901250120E4
:101DD0000749086000E00025284670BD4400002047
:101DE000240000209C0C0020280D00200C00002066
:101DF0003000002070B5002400263248006800281A
:101E000002D172B600BFFEE7FFF76EFA2D480068F8
:101E1000401E2C4908600846006800284DD12A4819
:101E20000068002849D022E02848C068C4682046DD
:101E30001830FFF70DFA201DFFF70AFA2449E06A6F
:101E40000968884202D92249E06A08601422E16ADE
:101E50005143204A8818211DFFF739FA1E49E06ACC
:101E60000968C96A884202D301201C4908601748E2
:101E70000068002801D1012000E000200028D3D014
:101E8000002C01D0FFF7AEF815480568002D0DD0E5
:101E900000BFFFF789FE002802D001200F4908602B
:101EA0006D1E002DF5D100200D4908600B4800681B
:101EB000002802D00126FFF753FAFFF723FA304635
:101EC00070BD0000440000201C000020280D0020F0
:101ED000240000209C0C00200C000020300000207A
:101EE0002C0000201CB50024FEF770FD0A48006895
:101EF00000280AD0094802210023502200910190B5
:101F000007A10948FFF70AFE0446002C02D172B669
:101F100000BFFEE720461CBD5000002054000020FA
:101F2000546D722053766300FD100008F0B585B043
:101F300004460D4616461F4600200390002C02D191
:101F400072B600BFFEE715480068002822D0009551
:101F500001960294062D15DAFFF70EFE022808D12D
:101F6000002369460D480A9A0068FFF7C6FB0390F4
:101F700010E000231A46694608480068FFF7BDFBD9
:101F8000039007E000233A46694604480068FFF7DB
:101F900073FC0390039805B0F0BD000050000020D2
:101FA000C01F0008000000205C000000F8000008CE
:101FB0001C2000085C00002094130000140100089D
:101FC0000000000000000000AAAAAAAA0000000069
:101FD0000000000000000000000000000000000001
:101FE00000000000000000000000000000000000F1
:101FF00000000000000000000000000000000000E1
:1020000000000000000000000000000000000000D0
:0C201000000000000000000000000000C4
:0400000508000209E4
:00000001FF
