:020000040800F2
:10000000F047002001020008090200080B02000866
:100010000D0200080F020008110200080000000095
:1000200000000000000000000000000013020008B3
:100030001502000800000000BF0100084906000882
:100040001B0200081B0200081B0200081B0200081C
:100050001B0200081B0200081B0200081B0200080C
:100060001B0200081B0200081B0200081B020008FC
:100070001B0200081B0200081B0200081B020008EC
:100080001B0200081B0200081B0200081B020008DC
:100090001B0200081B0200081B0200081B020008CC
:1000A0001B0200081B0200081B0200081B020008BC
:1000B0001B0200081B0200081B0200081B020008AC
:1000C0001B0200081B0200081B0200081B0200089C
:1000D0001B0200081B0200081B0200081B0200088C
:1000E0001B0200081B0200081B02000800F002F8B7
:1000F00000F03AF80AA090E8000C82448344AAF188
:100100000107DA4501D100F02FF8AFF2090EBAE885
:100110000F0013F0010F18BFFB1A43F0010318473B
:10012000241C0000441C0000103A24BF78C878C189
:10013000FAD8520724BF30C830C144BF04680C60ED
:10014000704700000023002400250026103A28BF35
:1001500078C1FBD8520728BF30C148BF0B60704739
:100160001FB51FBD10B510BD00F035F91146FFF7E2
:10017000F7FF00F0ABFA00F053F903B4FFF7F2FF1A
:1001800003BC00F05BF90000084B196808682030D8
:1001900080F30988022080F31488BFF36F8F3FBC7F
:1001A000AE4608BC04BC62B6184700000C00002034
:1001B000EFF3108072B6704780F310887047EFF34A
:1001C00009800E4B1A6820381060F0C044464D4636
:1001D00056465F46F0C008B572B601F0D7F862B671
:1001E0000CBC116808681030F0C8A046A946B24699
:1001F000BB4680F309882038F0C818470C0000205F
:100200000948804709480047FEE7FEE7FEE7FEE7AA
:10021000FEE7FEE7FEE7FEE7FEE7FEE704480549E6
:10022000054A064B704700006D060008ED00000807
:10023000F0410020F0470020F0430020F043002070
:10024000032A40F2308010F0030C00F0158011F802
:10025000013BBCF1020F624498BF11F801CB00F8DA
:10026000013B38BF11F8013BA2F1040298BF00F82E
:1002700001CB38BF00F8013B11F0030300F05780B9
:10028000083AC0F0088051F8043B083A51F804CB12
:10029000A0E80810F5E7121D5CBF51F8043B40F8D8
:1002A000043BAFF30080D20724BF11F8013B11F8E3
:1002B00001CB48BF11F8012B24BF00F8013B00F827
:1002C00001CB48BF00F8012B704702F0FF0343EA5F
:1002D000032242EA024200F05EB84FF0000200B58D
:1002E000134694469646203922BFA0E80C50A0E859
:1002F0000C50B1F12001BFF4F7AF090728BFA0E807
:100300000C5048BF0CC05DF804EB890028BF40F8D2
:10031000042B08BF704748BF20F8022B11F0804F14
:1003200018BF00F8012B704770477047704710B531
:10033000203AC0F00B80B1E81850203AA0E81850DD
:10034000B1E81850A0E81850BFF4F5AF5FEA027C9E
:1003500024BFB1E81850A0E8185044BF18C918C00D
:10036000BDE810405FEA827C24BF51F8043B40F8AE
:10037000043B08BF7047D20728BF31F8023B48BF93
:1003800011F8012B28BF20F8023B48BF00F8012BD1
:1003900070474FF000020429C0F0128010F0030CE7
:1003A0003FF49DAFCCF1040CBCF1020F18BF00F874
:1003B000012BA8BF20F8022BA1EB0C01FFF78FBF88
:1003C0005FEAC17C24BF00F8012B00F8012B48BF75
:1003D00000F8012B7047754600F02CF8AE4605007A
:1003E0006946534620F00700854618B020B5FFF750
:1003F00015FFBDE820404FF000064FF000074FF01A
:1004000000084FF0000B21F00701AC46ACE8C00932
:10041000ACE8C009ACE8C009ACE8C0098D4670473B
:1004200010B50446AFF300802046BDE81040FFF74A
:10043000A4BE0000004870478C41002001491820EC
:10044000ABBEFEE726000200704700000D48806941
:1004500040F010000B4988610B48406820F0407064
:10046000094948600846406840F000604860084616
:10047000406840F4001048600846406820F440009E
:100480004860704700100240001001402348006897
:1004900040F480302149086000BF2048006800F423
:1004A00000300028F9D013201D4908601B4840681F
:1004B0001A4948600846406840F480604860084631
:1004C000406848600846406840F48030486008460C
:1004D000406848600846406840F4E01048600846BC
:1004E000006840F08070086000BF0C48006800F0B1
:1004F00000700028F9D00948406820F0030007493F
:1005000048600846406840F00200486000BF034869
:10051000406800F00C000828F9D170470010024034
:10052000002002400B48806940F0040009498861BE
:100530000948006840F04C700749086008460068A8
:1005400040F0086008600548406840F000700349CA
:10055000486070470010024004080140000001405C
:1005600010B500F001F810BD0CB50020019000900E
:100570003348006840F480303149086000BF30489B
:10058000006800F4003000900198401C0190009831
:1005900018B90198B0F5A06FF1D12948006800F4AE
:1005A000003010B10120009001E000200090009880
:1005B000012843D12348006840F010002149086019
:1005C0000846006820F0030008600846006840F014
:1005D000020008601A4840681949486008464068A7
:1005E00048600846406840F48060486008464068BB
:1005F00020F47C1048600846406840F4E8104860E9
:100600000846006840F08070086000BF0C48006831
:1006100000F000700028F9D00948406820F003007D
:10062000074948600846406840F00200486000BF43
:100630000348406800F00C000828F9D10CBD000008
:10064000001002400020024010B5FFF7B1FD044643
:1006500001F08AF918B14FF0805003490860204634
:10066000FFF7AAFD10BD000004ED00E010B513482F
:10067000006840F0010011490860084640681049D0
:1006800008400E494860084600680E4908400B497A
:1006900008600846006820F480200860084640682A
:1006A00020F4FE0048604FF41F008860FFF758FFF9
:1006B0004FF000600449086010BD000000100240C7
:1006C0000000FFF8FFFFF6FE08ED00E01CB5FFF7A5
:1006D000DDFEFFF727FFFFF7B9FE002001210346EB
:1006E0002022CDE9001008A1114801F0F7F800F030
:1006F0000BFE08E00F48C06880F400500D49C86048
:10070000322000F0A5FDF5E7426C696E6B20504386
:100710003133207768656E20627574746F6E206F58
:100720006E2050433134207075736865640000009A
:1007300011120008001001402DE9F04105460E4657
:100740001648076816480068001D00F099FC681CF0
:1007500038B936B112480168091D124800F0CEFCC4
:100760001AE07C190E4800684460BC4207D20C486D
:100770000168091D0C48006800F0A6FC0CE0084860
:100780000168091D0948006800F09EFC08480068DF
:10079000844201D206480460BDE8F08120000020B8
:1007A0000C00002050410020140000201000002008
:1007B0003C00002010B5044600F0ACFC2148006865
:1007C000401C204908602048006840B91E48046069
:1007D0000846006801280DD100F082F90AE01B48A4
:1007E000006838B918480068C06AE16A884201D8D0
:1007F0001548046016480068401C15490860084602
:10080000006860651349E06A0968884202D91149A5
:10081000E06A0860E16A01EB81010F4A02EB8100A6
:10082000211D00F06BFC00F083FC0848006838B123
:1008300005480068C06AE16A884201D200F0A0FC65
:1008400010BD00001C0000200C000020280000202B
:1008500038000020240000209C40002010B500F04B
:1008600059FC10480068D0B90F4800F01DFC0F4833
:1008700000F01AFC0C480E4908600C480D4908604D
:1008800000220C21052000F0DBFD06490860084627
:10089000006820B108A10348006800F07DFC00F06A
:1008A00047FC10BD5000002064410020784100202A
:1008B000480000204C000020546D725100000000E0
:1008C00010B516E000F026FC0C48C068C468201D76
:1008D00000F0D6FB0A480068401E09490860094834
:1008E0000068401E0749086000F022FC204600F026
:1008F0005FF8044800680028E4D110BD3C410020A6
:100900001C0000201800002070B504460D46206C25
:1009100070B1216CE0680144E160D4E902108842C2
:1009200001D32168E1602846226CE168FFF788FC6A
:1009300070BD2DE9F04104460F4615464FF0000802
:10094000A66B206C48B9206800282CD1A06801F063
:10095000A5F880460020A06025E07DB93946226CCC
:100960006068FFF76DFC216C606808446060D4E942
:100970000101884217D32068606014E03946226C78
:10098000E068FFF75DFC216CE068411AE1602168D6
:10099000E068884203D2216CA068411AE160022D10
:1009A00001D106B1761E701CA0634046BDE8F081FF
:1009B00010B50446206B00F0CDFB204600F0CAFBCA
:1009C00010BD00000146084A126812680AB90122E7
:1009D00000E000220A600A6822B9034A1268D2685D
:1009E000106800E0002070474800002000BFFFF7BB
:1009F00067FF034800680128F9D900F0C1FBF6E75A
:100A00009C4000202DE9F04106460D4617469846C9
:100A1000069C0DB9246000E02760E663256401218F
:100A2000204600F03BFD84F850800020A064BDE823
:100A3000F0812DE9F05F82460E4690469B460A9F64
:100A40000C9C4FEA8801A522206BFFF73EFCA8F121
:100A50000100216B01EB800929F0070909F007006B
:100A600008B9012000E0002010B972B600BFFEE70F
:100A700086B1002507E0715D04F134004155705DD9
:100A800000B902E06D1C202DF5D300BF00215320DA
:100A9000015502E0002084F83400052F00D304271C
:100AA000E762E76500202066201D00F00AFB04F1E4
:100AB000180000F006FB2461C7F10500A061646224
:100AC0000020606684F868005A465146484600F0A7
:100AD000C7FA20600B9808B10B980460BDE8F09F3E
:100AE00010B5002407E004EB84010F4A02EB8100FB
:100AF00000F0DAFA641C052CF5D30C4800F0D4FAA7
:100B00000B4800F0D1FA0B4800F0CEFA0A4800F08A
:100B1000CBFA0A4800F0C8FA0448094908600448BA
:100B20000849086010BD00009C40002000410020E2
:100B300014410020284100203C4100205041002069
:100B400010000020140000202DE9F04104460D465D
:100B500016461F464FF0000865602461B5420CD868
:100B6000F01BA169884202D34FF0010811E0211D5A
:100B70000948006800F0A8FA0BE0BE4204D2BD426A
:100B800002D34FF0010804E0211D0448006800F082
:100B90009BFA4046BDE8F0814C0000204800002050
:100BA00070B5054600F0B6FAA86B08B9012400E05C
:100BB000002400F0BDFA204670BD70B5054600F077
:100BC000A9FAA86BE96B884201D1012400E0002456
:100BD00000F0AEFA204670BDF1B50098846C002696
:100BE00014B972B600BFFEE7A06BE16B884201D278
:100BF000012000E0002010B972B600BFFEE7A06B34
:100C0000E16B884224D294F945500022694620467F
:100C1000FFF78FFE0646681C60B9606A08B90120BC
:100C200000E0002098B904F1240000F079FF70B1D1
:100C300001260CE07F2D01D0012000E0002010B93A
:100C400072B600BFFEE7681C40B284F8450000BFE2
:100C50003046F8BDF8B505460F4616480068C0682E
:100C6000C468201D00F00CFA94F8280000F004007D
:100C7000A8B1A06941192B463A462046FFF764FF08
:100C800098B1002003462A4601460090204601F014
:100C90001FF8064616B972B600BFFEE705E094F8E5
:100CA000280020F0010084F828002046216A8847A7
:100CB000F8BD00004800002070B586B07AE00398C7
:100CC000002877DB059C606908B9012000E000205E
:100CD00010B9201D00F0D4F902A800F0C3F80546B1
:100CE00003980A2864D2DFE800F009050731395378
:100CF0000608323A00BF00BF00BF00BF94F82800CA
:100D000040F0010084F828000498A2698118034685
:100D10002A462046FFF718FFB8B12046216A8847C7
:100D200094F8280000F0040078B1002000900498A6
:100D3000A169421800231946204600F0C9FF064663
:100D400016B972B600BFFEE700BF32E000BF94F8EC
:100D5000280020F0010084F828002AE000BF94F861
:100D6000280040F0010084F828000498A061A069E0
:100D700008B1012000E0002010B972B600BFFEE704
:100D8000A06941192B462A462046FFF7DDFE10E0F8
:100D900094F8280000F0020018B9204600F0DAF9B3
:100DA00005E094F8280020F0010084F8280000E015
:100DB00000BF00BF002203A90448006800F0C8FC7F
:100DC00000287FF47CAF06B070BD0000500000200A
:100DD000F8B505460C4600F0D1FA684600F042F836
:100DE00006460098F0B944B9B54206D800F0DCFEDA
:100DF00031462846FFF72EFF16E03CB10B4800684D
:100E0000006808B9012000E000200446A91B224622
:100E10000748006800F0D6F900F0C6FE20B900F0DF
:100E2000AFF901E000F0C0FEF8BD00004C0000206A
:100E30005000002009480068006808B9012000E05F
:100E4000002020B14FF0FF300549086005E003485D
:100E50000068C06800680249086070471000002000
:100E60003C00002070B5044600F078FD05460748B8
:100E70000068854204D200F00BF80120206001E0F8
:100E80000020206001480560284670BD5800002001
:100E90002DE9F8432CE021480068C06805681F4828
:100EA0000068C068C468201D00F0EAF82046216A86
:100EB000884794F8280000F00400C8B1A0694619DA
:100EC000AE4207D966602461211D1448006800F015
:100ED000FBF80DE0002003462A460146009020461C
:100EE00000F0F6FE074617B972B600BFFEE700BF76
:100EF0000A480068006808B9012000E000200028C6
:100F0000C9D00648D0F80080054800680349086049
:100F10000348C0F80080BDE8F883000048000020C6
:100F20004C00002006480068401C08B9012000E081
:100F3000002010B972B600BFFEE772B600BFFEE730
:100F40000800002008B500BF6846FFF73BFD0446D7
:100F500020460099FFF73CFFFFF7AEFEF4E770B5BF
:100F6000044600F0D7F894F9455019E0A06C30B170
:100F70002046FFF731FE88B100F094F90EE0606A78
:100F800008B9012000E0002038B904F1240000F085
:100F9000C7FD18B100F086F900E003E0681E45B215
:100FA000002DE3DC00BFFF2084F8450000F0C0F80E
:100FB00000F0B0F894F9445010E0206908B901201D
:100FC00000E0002048B904F1100000F0A9FD08B1CC
:100FD00000F068F9681E45B200E001E0002DECDC8D
:100FE00000BFFF2084F8440000F0A2F870BD0000AC
:100FF00070B50446002504F0070020B104F0070096
:10100000C0F10800044400F0B9F91248006820B9A2
:10101000114820F007000F4908601048006820447C
:1010200043F6F871884210D20C48006820440B49FE
:101030000968884209D907480068084909684518BD
:101040000648006820440549086000F0ADFD2846C8
:1010500070BD00000400002064000020000000209B
:10106000001F4FF080730360001F0160001F034BDF
:10107000036014380260203870470000250F000814
:1010800001460A69D1E901309860D1E9010358604D
:101090005068884201D1886850600020086110685B
:1010A000401E10601068704700F1080141604FF069
:1010B000FF31816000F10801C16001610021016020
:1010C000704700210161704710B502460B685C1C37
:1010D0000CB9106907E002F1080000E040684468BC
:1010E00024689C42FAD944684C604C68A1608860CE
:1010F00041600A611468641C146010BD42684A6053
:1011000093688B60936859609160086103685B1C09
:101110000360704772B605480068401C03490860C8
:10112000BFF34F8FBFF36F8F7047000008000020A0
:101130000748006810B972B600BFFEE704480068AF
:10114000401E034908600846006800B962B670474F
:101150000800002008B9012100E0002111B972B691
:1011600000BFFEE77047000000204FF0E02108615B
:101170008861024848610720086170473F190100F3
:101180004FF0805003490860BFF34F8FBFF36F8F5C
:101190007047000004ED00E0024600200BE0084B21
:1011A00053F8303033B9064B43F8301003EBC0032B
:1011B0005A6002E0401C0828F1D300BF70470000CD
:1011C0005C4000202DE9F04105460E4617462C46AE
:1011D000FFF7A0FF94F94400401C10B9002084F8E8
:1011E000440094F94500401C10B9002084F84500E3
:1011F000FFF79EFFA06B28B93A46314604F1240060
:1012000000F06AF82046FFF7AAFEBDE8F081000072
:101210001AE00E48806800F4804070B94FF000502A
:101220000A490861642000F013F84FF400500749A0
:101230000861642000F00CF803E04FF4005003490B
:101240000861012000F004F8E3E70000001001400D
:1012500070B50446002594B10B48006808B9012018
:1012600000E0002010B972B600BFFEE700F086F87B
:1012700000212046FFF760FA00F096FC05460DB904
:10128000FFF77EFF70BD000044000020034909689D
:101290000160034909684160704700003400002084
:1012A0002000002001200149086070473000002024
:1012B00070B504460D4614B972B600BFFEE7054886
:1012C000016818312046FFF7FFFE01212846FFF78D
:1012D00033FA70BD0C00002070B505460E4614466A
:1012E00015B972B600BFFEE70648016818312846F6
:1012F000FFF704FF0CB14FF0FF3621463046FFF7F1
:101300001BFA70BD0C0000201CB5154800210B46CF
:101310002022CDE9001013A1144800F0DFFA0446A2
:10132000012C02D100F0B2FC0446012C0DD172B6A2
:101330004FF0FF300E49086001200E490860002080
:101340000D49086000F062F808E0601C08B1012057
:1013500000E0002010B972B600BFFEE71CBD00001F
:101360004000002049444C4500000000ED09000801
:101370003C000020280000202000002002480068D7
:10138000401C014908607047440000201A4800686A
:1013900018B10120194908602CE0002017490860A5
:1013A0001748016804E011B972B600BFFEE7491E94
:1013B00001EB8100134A52F8200008B9012000E037
:1013C00000200028EFD101EB81020E4B03EB8200DD
:1013D00042685268426000F108024368934202D1B9
:1013E0004268526842604268D268074B1A600448FB
:1013F000016000BF70470000440000203000002062
:10140000240000209C4000200C00002010B50A4859
:10141000006840F47F00084908600846006840F012
:101420007F400860FFF7A0FE002004490860FEF737
:10143000ABFE002010BD000020ED00E00800002001
:101440002DE9F84305460E4690460DB1012000E017
:10145000002010B972B600BFFEE705FB06F71EB10B
:10146000B7FBF6F0A84201D1012000E0002010B93E
:1014700072B600BFFEE707F15400FFF7B9FD04465E
:101480004CB1A14609F1540943464A463146284623
:101490000094FFF7B7FA2046BDE8F88370B505461B
:1014A0000E462C4614B972B600BFFEE7FFF732FEB7
:1014B000D4E90F12206801FB0200A0600020A063A5
:1014C00020686060E06B401E226C216800FB021106
:1014D000E160FF2084F8440084F845006EB920697B
:1014E00008B9012000E0002078B904F1100000F0F4
:1014F00017FB50B1FFF744FE07E004F11000FFF7BF
:10150000D3FD04F12400FFF7CFFDFFF711FE01200A
:1015100070BD2DE9FF4782B0064688461D464FF054
:101520000009344614B972B600BFFEE7B8F1000FE7
:1015300001D1206C08B9012000E0002010B972B67A
:1015400000BFFEE7022D02D1E06B012801D101208E
:1015500000E0002010B972B600BFFEE700F0EEF91F
:1015600008B9049808B9012000E0002010B972B64B
:1015700000BFFEE700BFFFF7CDFDA06BE16B884227
:1015800001D3022D2CD1D4F838A02A46414620465A
:10159000FFF7CFF90746A06C58B1022D02D1BAF17E
:1015A000000F17D12046FFF717FB98B1FFF7E8FDB2
:1015B00010E0606A08B9012000E0002038B904F1A9
:1015C000240000F0ADFA28B1FFF7DAFD02E00FB118
:1015D000FFF7D6FDFFF7ACFD012006B0BDE8F087B0
:1015E000049818B9FFF7A4FD0020F6E7B9F1000F41
:1015F00004D16846FFF74AFE4FF00109FFF798FD56
:10160000FFF7BCFEFFF786FD94F94400401C10B9BB
:10161000002084F8440094F94500401C10B90020D3
:1016200084F84500FFF784FD04A9684600F01EF920
:10163000C0B92046FFF7C1FA70B104F11000049957
:10164000FFF736FE2046FFF78AFC00F0ADFA0028CF
:1016500091D1FFF795FD8EE72046FFF780FC00F063
:10166000A3FA88E72046FFF77AFC00F09DFA0020F5
:10167000B3E72DE9F84F07468A4615461E463C4615
:1016800014B972B600BFFEE7BAF1000F01D1206CA9
:1016900008B9012000E0002010B972B600BFFEE7D3
:1016A000022E02D1E06B012801D1012000E00020D0
:1016B00010B972B600BFFEE7FEF77AFD8346A06B55
:1016C000E16B884201D3022E3AD194F94590A06B88
:1016D0000090324651462046FFF72BF909F10100F0
:1016E000E0B9A06C58B1022E01D1009828BB204669
:1016F000FFF772FA08B305B3012028601DE0606AA5
:1017000008B9012000E00020B8B904F1240000F07D
:1017100007FA90B18DB1012028600EE0B9F17F0F7A
:1017200001D0012000E0002010B972B600BFFEE732
:1017300009F1010040B284F845004FF0010801E0D2
:101740004FF000085846FEF737FD4046BDE8F88FD9
:101750002DE9F74183B005460E464FF000082C46B0
:1017600014B972B600BFFEE70EB9206C08B90120AB
:1017700000E0002010B972B600BFFEE700F0DEF80E
:1017800008B9059808B9012000E0002010B972B628
:1017900000BFFEE700BFFFF7BDFCA76BC7B1314636
:1017A0002046FFF7B1F8781EA063206908B9012030
:1017B00000E0002030B904F1100000F0B1F908B1E8
:1017C000FFF7DEFCFFF7B4FC012006B0BDE8F081B6
:1017D000059818B9FFF7ACFC0020F6E7B8F1000F48
:1017E00004D101A8FFF752FD4FF00108FFF7A0FC5C
:1017F000FFF7C4FDFFF78EFC94F94400401C10B9BC
:10180000002084F8440094F94500401C10B90020E1
:1018100084F84500FFF78CFC05A901A800F026F824
:10182000C0B92046FFF7BCF970B104F12400059956
:10183000FFF73EFD2046FFF792FB00F0B5F90028C8
:10184000A9D1FFF79DFCA6E72046FFF788FB00F033
:10185000ABF9A0E72046FFF782FB00F0A5F9204690
:10186000FFF79EF9002896D00020AEE770B5054638
:101870000C4615B972B600BFFEE714B972B600BFC8
:10188000FEE7FFF747FC1348036868681A1A2068E8
:10189000401C08B9002619E00F49286809688842E9
:1018A00006D06868984203D80126002020600DE029
:1018B0002068904207D92068801A20602846FFF7E8
:1018C000E5FC002602E0002020600126FFF730FC46
:1018D000304670BD20000020340000202DE9FF4F6D
:1018E00085B0804689461746DDE912ABB800FFF7A0
:1018F0007FFB064656B16C20FFF77AFB04460CB11D
:10190000266304E03046FFF725FC00E000247CB1AC
:101910000020CDE900ABCDE902403A4649464046B9
:10192000089BFFF786F82046FEF744FF012501E0FB
:101930004FF0FF35284609B0BDE8F08F054909682A
:1019400009B9012005E00449096809B9022000E04D
:10195000002070472800002044000020014908684A
:1019600070470000200000202DE9F0414FF00008F2
:101970003F480068002873D13E480068451C3D4838
:101980000560D5B93C480068006808B9012000E04E
:10199000002010B972B600BFFEE737480768374825
:1019A0000068354908603548076035480068401CC4
:1019B00033490860FFF73EFA00BF324800688542AD
:1019C0003BD300BF2C480068006808B9012000E044
:1019D000002020B14FF0FF302A4908602CE0264853
:1019E0000068C068C4686668B54202D225480660CF
:1019F00022E0201DFFF744FBA06A18B104F1180093
:101A0000FFF73EFB2049E06A0968884202D91E4977
:101A1000E06A0860E16A01EB81011C4A02EB810087
:101A2000211DFFF76BFB1A49E06A0968C96A884201
:101A3000C8D34FF00108C5E700BF15480068C06A69
:101A400000EB8000114951F82000012801D94FF026
:101A500001081048006808B14FF0010805E0FFE7F1
:101A60000D480068401C0C4908604046BDE8F08104
:101A7000440000202000002010000020140000205E
:101A8000340000203C000020240000209C40002066
:101A90000C000020300000202C00002070B505460E
:101AA0002C460026002D33D01A480068844201D10C
:101AB000012000E0002010B972B600BFFEE7206EE2
:101AC00010B972B600BFFEE7206E401E2066E16DC1
:101AD000E06A88421CD0206ED0B9201DFFF7D0FAF2
:101AE000E06DE062E06AC0F10500A0610A49E06AC9
:101AF0000968884202D90849E06A0860E16A01EB96
:101B00008101064A02EB8100211DFFF7F7FA012649
:101B1000304670BD0C000020240000209C400020B6
:101B200070B50646F068C46814B972B600BFFEE727
:101B300004F11800FFF7A4FA15480068A0B9201DA9
:101B4000FFF79EFA1349E06A0968884202D91149F1
:101B5000E06A0860E16A01EB81010F4A02EB810053
:101B6000211DFFF7CBFA04E004F118010B48FFF741
:101B7000C5FA0B49E06A0968C96A884204D9012597
:101B800001200849086000E00025284670BD0000DB
:101B900044000020240000209C4000202841002018
:101BA0000C0000203000002070B5002400262F48D3
:101BB000006810B972B600BFFEE7FFF7ABFA2B481A
:101BC0000068401E2949086008460068002849D17D
:101BD00027480068002845D023E02648C068C4682C
:101BE00004F11800FFF74CFA201DFFF749FA2249CB
:101BF000E06A0968884202D91F49E06A0860E16A20
:101C000001EB81011D4A02EB8100211DFFF776FAED
:101C10001B49E06A0968C96A884202D30120194950
:101C200008601448006808B9012000E0002000287E
:101C3000D3D00CB1FFF7FEF81348056865B100BFBB
:101C4000FFF792FE10B101200E4908606D1E002DB5
:101C5000F6D100200C4908600A48006810B101263E
:101C6000FFF78EFAFFF764FA304670BD440000209B
:101C70001C00002028410020240000209C4000205F
:101C80000C000020300000202C0000201CB5002497
:101C9000FEF7E4FD0948006850B10948022100231D
:101CA0005022CDE9001007A10848FFF717FE0446AF
:101CB00014B972B600BFFEE720461CBD50000020DC
:101CC00054000020546D722053766300450F0008C5
:101CD0002DE9FE4304460D4616461F46DDF82880D2
:101CE0004FF0000914B972B600BFFEE7144800684F
:101CF00010B3009501960294062D15DAFFF71EFE2B
:101D0000022808D10023424669460D480068FFF7C3
:101D100000FC814610E000231A4669460848006826
:101D2000FFF7F7FB814607E000233A46694604487F
:101D30000068FFF79EFC81464846BDE8FE83000030
:101D400050000020641D0008000000205C0000001E
:101D500028010008C01D00085C0000209447000016
:101D6000440100080000000000000000AAAAAAAA7E
:101D70000000000000000000000000000000000063
:101D80000000000000000000000000000000000053
:101D90000000000000000000000000000000000043
:101DA0000000000000000000000000000000000033
:101DB0000000000000000000000000000000000023
:0400000508000201EC
:00000001FF
