:020000040800F2
:10000000600600201D0200082502000827020008E3
:10001000290200082B0200082D0200080000000041
:100020000000000000000000000000002F02000897
:100030003102000800000000330200083502000809
:1000400037020008370200083702000837020008AC
:10005000370200083702000837020008370200089C
:10006000370200083702000837020008370200088C
:10007000370200083702000837020008370200087C
:1000800037020008370200083702000800000000AD
:10009000000000000000000000000000370200081F
:1000A000370200083702000837020008370200084C
:1000B000370200083702000837020008370200083C
:1000C000370200083702000837020008370200082C
:1000D000370200083702000837020008000000005D
:1000E000370200083702000837020008000000004D
:1000F00000000000000000000000000037020008BF
:10010000000000003702000837020008370200082C
:1001100000000000000000000000000000000000DF
:1001200037020008370200083702000837020008CB
:10013000370200080000000000000000000000007E
:10014000000000000000000000000000370200086E
:10015000370200083702000837020008370200089B
:10016000370200083702000800000000000000000D
:10017000000000000000000000000000000000007F
:10018000000000003702000800000000000000002E
:10019000370200083702000800F002F800F02EF8DD
:1001A0000AA090E8000C82448344AAF10107DA45D2
:1001B00001D100F023F8AFF2090EBAE80F0013F0F6
:1001C000010F18BFFB1A43F001031847D4020000C7
:1001D000E40200000023002400250026103A28BF76
:1001E00078C1FBD8520728BF30C148BF0B607047A9
:1001F0001FB500F04FF91FBD10B510BD00F031F86C
:100200001146FFF7F5FF00F041F900F04FF803B495
:10021000FFF7F2FF03BC00F057F8000009488047E1
:1002200009480047FEE7FEE7FEE7FEE7FEE7FEE7D8
:10023000FEE7FEE7FEE7FEE704480549054A064BF0
:1002400070470000250400089901000860000020A4
:1002500060060020600200206002002070477047A6
:100260007047754600F02CF8AE46050069465346C7
:1002700020F00700854618B020B5FFF7DDFFBDE888
:1002800020404FF000064FF000074FF000084FF0FD
:10029000000B21F00701AC46ACE8C009ACE8C0098E
:1002A000ACE8C009ACE8C0098D46704710B50446FB
:1002B000AFF300802046BDE81040FFF7A8BF000064
:1002C000004870470000002001491820ABBEFEE73F
:1002D00026000200704700002948006840F4803082
:1002E0002749086000BF2648006800F40030002855
:1002F000F9D02348083000682149083108600846D1
:10030000006840F480500860084600680860081FD4
:10031000006840F48000091F08600846006840F04B
:100320000C0008600846006840F04000086008467D
:1003300000680860081D006820F00300091D0860BF
:100340000846006840F00200086000BF0C48083012
:10035000006800F00C000828F8D10948006840F057
:1003600080700749086000BF0548006800F0007011
:100370000028F9D040F2037002490860704700007D
:1003800000380240003C02402248006840F08050A3
:10039000204908602048006840F440401E49086039
:1003A0001C48383800681B4938390860084600681E
:1003B00008600846006840F4805008601748091F2C
:1003C0000860081F006840F08070091F086000BFC7
:1003D00010484038006800F000700028F8D040F263
:1003E00002700F4908600B483838006820F003009D
:1003F0000849383908600846006840F00200086083
:1004000000BF04483838006800F00C000828F8D114
:10041000704700004038024000700040106401073F
:10042000003C024010B51548006840F470001349C4
:1004300008601348006840F001001149086000207E
:100440000F49083108600E4800680E4908400C4901
:1004500008600D48091D0860081F006820F480200E
:10046000091F0860002006490C310860FFF78CFF67
:100470004FF0006001498039086010BD88ED00E050
:1004800000380240FFFFF6FE10300024FFF724FF83
:1004900000BFFEE74FF04070E1EE100A7047000029
:1004A000B00400080000002060060000D40100082D
:040000050800021DD0
:00000001FF
