:020000040800F2
:10000000600600203D01000863010008650100084A
:1000100000000000000000000000000000000000E0
:100020000000000000000000000000006701000860
:100030000000000000000000690100086B010008DA
:100040006D010008000000006D0100086D0100084E
:100050006D0100086D0100086D0100086D010008C8
:10006000000000006D0100086D0100086D0100082E
:100070006D0100086D0100086D010008000000001E
:100080006D01000800000000000000006D01000884
:100090006D0100086D0100086D0100086D01000888
:1000A0006D0100086D0100086D010008F1060008EF
:1000B0006D01000800F002F800F030F80CA030C824
:1000C000083824182D18A246671EAB4654465D46D4
:1000D000AC4201D100F022F87E460F3E0FCCB6466E
:1000E0000126334200D0FB1AA246AB4633431847E1
:1000F00040070000500700000023002400250026D0
:10010000103A01D378C1FBD8520700D330C100D5D3
:100110000B6070471FB51FBD10B510BD00F0E2F8B1
:100120001146FFF7F7FF00F033FB00F0FAF803B4D5
:10013000FFF7F2FF03BC00F02FF900000F4880F337
:1001400008880F480168090E0E4A914205D10E48F1
:100150000E4901600E480F4901600F4880470F4863
:100160000047FEE7FEE7FEE7FEE7FEE7FEE70000EA
:100170000B480C490C4A0D4B7047000060060020EC
:10018000040000001F0000001810024001000000E1
:10019000000001400000000075060008B5000008DE
:1001A0006000002060060020600200206002002045
:1001B0007047704770471F22030C02D10F220004C2
:1001C00002D0030E03D004E0002001467047000275
:1001D000083A030F01D10001121F830F01D18000E3
:1001E000921E002801DB4000521E120551184205E4
:1001F000C012411810467047C10FC90700D04042D5
:10020000012292071143D6E701218907D3E70000B5
:10021000F8B5224C4E00069DA6420AD8A64201D14E
:10022000002806D15E00A64203D8A6420AD1002AC1
:1002300008D00D24240425422CD02946002000F0AB
:100240002FF8F8BD0C461C430CD4994202D0EFF3B2
:100250000080F8BD904202D0EFF30080F8BDEFF3CC
:100260000080F8BD09242407E5008B4206D0EFF397
:100270000080A043591A06D2284304E0101A05D37F
:10028000EFF30080A04380F30088F8BDEFF3008017
:10029000A043F1E7009500F01BF8F8BD0000E0FF77
:1002A000C80212D54803400F002804D0C803C04339
:1002B000012188407047EFF300800001000903210D
:1002C0000907084380F3008870470020704700004A
:1002D00010B500200249029A00F02BF810BD000072
:1002E0000000F87F754600F053F8AE4605006946F9
:1002F0005346C008C000854618B020B5FFF738FF48
:1003000060BC00274908B6460026C0C5C0C5C0C5A8
:10031000C0C5C0C5C0C5C0C5C0C5403D49008D46AB
:10032000704710B50446C046C0462046FFF7FFFEA2
:1003300010BD10B50C461107090F092904D00A2970
:100340000AD008290CD104E011460820FFF7A8FFC5
:1003500006E0510606D501E0510601D50120C0078F
:10036000214610BDD10607D501010909CC0849076E
:10037000000E0006044309E0410F20024907000A6D
:100380000143200E00061D22D14101430846E7E744
:10039000004870470000002001491820ABBEFEE76E
:1003A00026000200704700001348406901214904FB
:1003B0000843114948610920C006006889150843AF
:1003C0000921C90608600846808810218843092150
:1003D000C90688800846806803210902084309216C
:1003E000C90688600846C068FF2101310843092119
:1003F000C906C86070470000001002402448006829
:100400000121090408432249086000BF2048006810
:100410000121490408400028F8D011201D49086036
:100420001B4840681A4948600846406848600846CA
:10043000406801210904084315494860084640689E
:10044000486008464068486008460068012109067F
:1004500008430F49086000BF0D48006801214906A4
:1004600008400028F8D00A48406880088000084901
:10047000486008464068022108430549486000BFBB
:10048000034840680C2108400828F9D17047000053
:100490000010024000200240084840690121490440
:1004A0000843064948610920C00600680521C906BD
:1004B00008430921C9060860704700000010024087
:1004C00032484069012149040843304948610846DF
:1004D00080690121890308432C4988610920C006ED
:1004E00000680121490508430921C906086008463A
:1004F00080680321090508430921C9068860084668
:1005000080880121490288430921C906888008465C
:10051000C0680321090508430921C906C8600846C7
:1005200000680121C90408430921C906086008467A
:1005300080680321090508430921C9068860084627
:1005400080880121490288430921C906888008461C
:10055000C0680321090588430921C906C8600C4801
:100560000C498881084600680D2108430949086044
:100570000846006820210843064908601B20012125
:100580008140054A116000BF704700000010024022
:10059000881300000038014000E100E00CB50020A5
:1005A00001900090314800680121090408432F4957
:1005B000086000BF2D4800680121490408400090F0
:1005C0000198401C01900098002804D105210903DE
:1005D00001988842EED1254800680121490408406D
:1005E000002802D00120009001E000200090009837
:1005F000012839D111201E4908601C4840681B4958
:100600004860084640684860084640687F21C90342
:100610008843164948600846406811210904084388
:1006200012494860084600680121090608430F493D
:10063000086000BF0D4800680121490608400028F5
:10064000F8D00A4840688008800008494860084699
:100650004068022108430549486000BF03484068DC
:100660000C2108400828F9D10CBD00000010024000
:100670000020024010B51B480068012108431949B9
:10068000086008464068184908401649486008460E
:1006900000681649084013490860084600680121AF
:1006A000890488430F490860084640683F210904CF
:1006B00088430C4948600846C06A00090001C862C6
:1006C0000846006BFF2154318843064908630846F9
:1006D000406B40084000486300208860FFF75EFFE1
:1006E00010BD0000001002400CB8FF08FFFFF6FE2E
:1006F00010B51148C0692021084000281BD00E48C1
:10070000C06988430C49C8610B4820308088302874
:1007100005D10AA000F02EF810200B498861064888
:1007200020308088312806D108A000F023F801206D
:1007300000050549886110BD003801404C45442042
:100740004F46460D0A000000000800484C45442072
:100750004F4E0D0A0000000000BF0549C969402244
:1007600011400029F9D002492031888070470000EB
:100770000038014010B50346002405E02146621C04
:10078000D4B2585CFFF7E8FF185D0028F6D110BD21
:100790000026FFF733FEFFF77FFEFFF705FEFFF7AA
:1007A0008FFE0FE03220FFF7D7FF002601E000BFE9
:1007B000761C3046FFF728FD04460022024B00F06D
:1007C00005F8F4D3EEE7000060E3864170B501253B
:1007D0000C002D051C4310D4EC4206D4AC420AD4C4
:1007E000994200D070BD904270BDE94217D4EB42EF
:1007F00015D4994270BD894270BDEC4206D5AC4219
:10080000F9D58B4200D070BD824270BD6D004C00A6
:10081000EC4204D25C00EC4201D28B4270BD034C2E
:1008200030B4FFF7F5FC30BC70BD00BF19001604F2
:10083000400800080000002060060000F8000008E2
:040000050800013DB1
:00000001FF
