:020000040800F2
:10000000600600203D01000863010008650100084A
:1000100000000000000000000000000000000000E0
:100020000000000000000000000000006701000860
:100030000000000000000000690100086B010008DA
:100040006D010008000000006D0100086D0100084E
:100050006D0100086D0100086D0100086D010008C8
:10006000000000006D0100086D0100086D0100082E
:100070006D0100086D0100086D010008000000001E
:100080006D01000800000000000000006D01000884
:100090006D0100086D0100086D0100086D01000888
:1000A0006D0100086D0100086D0100086D01000878
:1000B0006D01000800F002F800F030F80CA030C824
:1000C000083824182D18A246671EAB4654465D46D4
:1000D000AC4201D100F022F87E460F3E0FCCB6466E
:1000E0000126334200D0FB1AA246AB4633431847E1
:1000F00030060000400600000023002400250026F2
:10010000103A01D378C1FBD8520700D330C100D5D3
:100110000B6070471FB51FBD10B510BD00F0E2F8B1
:100120001146FFF7F7FF00F099FA00F0FAF803B470
:10013000FFF7F2FF03BC00F02FF900000F4880F337
:1001400008880F480168090E0E4A914205D10E48F1
:100150000E4901600E480F4901600F4880470F4863
:100160000047FEE7FEE7FEE7FEE7FEE7FEE70000EA
:100170000B480C490C4A0D4B7047000060060020EC
:10018000040000001F0000001810024001000000E1
:100190000000014000000000E1050008B500000873
:1001A0006000002060060020600200206002002045
:1001B0007047704770471F22030C02D10F220004C2
:1001C00002D0030E03D004E0002001467047000275
:1001D000083A030F01D10001121F830F01D18000E3
:1001E000921E002801DB4000521E120551184205E4
:1001F000C012411810467047C10FC90700D04042D5
:10020000012292071143D6E701218907D3E70000B5
:10021000F8B5224C4E00069DA6420AD8A64201D14E
:10022000002806D15E00A64203D8A6420AD1002AC1
:1002300008D00D24240425422CD02946002000F0AB
:100240002FF8F8BD0C461C430CD4994202D0EFF3B2
:100250000080F8BD904202D0EFF30080F8BDEFF3CC
:100260000080F8BD09242407E5008B4206D0EFF397
:100270000080A043591A06D2284304E0101A05D37F
:10028000EFF30080A04380F30088F8BDEFF3008017
:10029000A043F1E7009500F01BF8F8BD0000E0FF77
:1002A000C80212D54803400F002804D0C803C04339
:1002B000012188407047EFF300800001000903210D
:1002C0000907084380F3008870470020704700004A
:1002D00010B500200249029A00F02BF810BD000072
:1002E0000000F87F754600F053F8AE4605006946F9
:1002F0005346C008C000854618B020B5FFF738FF48
:1003000060BC00274908B6460026C0C5C0C5C0C5A8
:10031000C0C5C0C5C0C5C0C5C0C5403D49008D46AB
:10032000704710B50446C046C0462046FFF7FFFEA2
:1003300010BD10B50C461107090F092904D00A2970
:100340000AD008290CD104E011460820FFF7A8FFC5
:1003500006E0510606D501E0510601D50120C0078F
:10036000214610BDD10607D501010909CC0849076E
:10037000000E0006044309E0410F20024907000A6D
:100380000143200E00061D22D14101430846E7E744
:10039000004870470000002001491820ABBEFEE76E
:1003A00026000200704700002448406901214904EA
:1003B00008432249486108464069012189040843ED
:1003C0001E4948610920C0060068891508430921B3
:1003D000C906086008468088102188430921C9069B
:1003E0008880084680680321090208430921C9065C
:1003F00088600846C068FF21013108430921C90609
:10040000C8600F4800680C2188430D490860092026
:10041000C0068088022188430921C90688800846D1
:1004200080680C2108430921C90688600846C06815
:10043000082108430921C906C8607047001002401E
:1004400000040048244800680121090408432249A7
:10045000086000BF204800680121490408400028C6
:10046000F8D011201D4908601B4840681A494860AF
:10047000084640684860084640680121090408436E
:10048000154948600846406848600846406848602A
:10049000084600680121090608430F49086000BFAB
:1004A0000D4800680121490608400028F8D00A4894
:1004B000406880088000084948600846406802217A
:1004C00008430549486000BF034840680C210840C4
:1004D0000828F9D1704700000010024000200240B7
:1004E0000848406901214904084306494861092038
:1004F000C00600680521C90608430921C90608602D
:1005000070470000001002400CB5002001900090E0
:10051000314800680121090408432F49086000BFE1
:100520002D48006801214904084000900198401CB2
:1005300001900098002804D1052109030198884200
:10054000EED125480068012149040840002802D066
:100550000120009001E0002000900098012839D18E
:1005600011201E4908601C4840681B494860084625
:1005700040684860084640687F21C903884316499F
:100580004860084640681121090408431249486040
:10059000084600680121090608430F49086000BFAA
:1005A0000D4800680121490608400028F8D00A4893
:1005B0004068800880000849486008464068022179
:1005C00008430549486000BF034840680C210840C3
:1005D0000828F9D10CBD00000010024000200240A4
:1005E00010B51B48006801210843194908600846F6
:1005F000406818490840164948600846006816498E
:1006000008401349086008460068012189048843AE
:100610000F490860084640683F21090488430C4997
:1006200048600846C06A00090001C8620846006BBD
:10063000FF2154318843064908630846406B40084F
:100640004000486300208860FFF75EFF10BD000097
:10065000001002400CB8FF08FFFFF6FE0026FFF76F
:10066000F1FEFFF73DFFFFF79FFE1FE01048008AF5
:1006700002210840002813D10E48808A10214840EA
:100680000C498882002601E000BF761C3046FFF747
:10069000BBFD04460022084B00F010F806D2F3E739
:1006A0000448808A1021884302498882DEE70000DE
:1006B0000004004800080048006A284170B5012580
:1006C0000C002D051C4310D4EC4206D4AC420AD4D5
:1006D000994200D070BD904270BDE94217D4EB4200
:1006E00015D4994270BD894270BDEC4206D5AC422A
:1006F000F9D58B4200D070BD824270BD6D004C00B8
:10070000EC4204D25C00EC4201D28B4270BD034C3F
:1007100030B4FFF77DFD30BC70BD00BF190016047A
:10072000300700080000002060060000F800000804
:040000050800013DB1
:00000001FF
