:020000040800F2
:10000000600600203D01000863010008650100084A
:1000100000000000000000000000000000000000E0
:100020000000000000000000000000006701000860
:100030000000000000000000690100086B010008DA
:100040006D010008000000006D0100086D0100084E
:100050006D0100086D0100086D0100086D010008C8
:10006000000000006D0100086D0100086D0100082E
:100070006D0100086D0100086D010008000000001E
:100080006D01000800000000000000006D01000884
:100090006D0100086D0100086D0100086D01000888
:1000A0006D0100086D0100086D0100086D01000878
:1000B0006D01000800F002F800F030F80CA030C824
:1000C000083824182D18671EA246AB4654465D46D4
:1000D000AC4201D100F022F87E460F3EB6460FCC6E
:1000E0000126334200D0FB1A3343A246AB461847E1
:1000F00038030000480300000023002400250026E8
:10010000103A01D378C1FBD8520700D330C100D5D3
:100110000B6070471FB51FBD10B510BD00F04BF848
:100120001146FFF7F7FF00F077F900F063F803B42A
:10013000FFF7F2FF03BC00F069F800000F4880F3FE
:1001400008880F480168090E0E4A914205D10E48F1
:100150000E4901600E480F4901600F4880470F4863
:100160000047FEE7FEE7FEE7FEE7FEE7FEE70000EA
:100170000B480C490C4A0D4B7047000060060020EC
:10018000040000001F0000001810024001000000E1
:100190000000014000000000BD030008B500000899
:1001A0006000002060060020600200206002002045
:1001B000704770477047754600F024F8AE4605005A
:1001C00069465346C008C000854618B020B5FFF701
:1001D000CFFF60BCB64600260027C0C5C0C5C0C55D
:1001E000C0C5C0C5C0C5C0C5C0C5403D490849005F
:1001F0008D46704710B50446C046C0462046FFF7FE
:1002000096FF10BD004870470000002001491820EB
:10021000ABBEFEE72600020070470000012041044B
:100220003E4A13680B431360800411680143116058
:100230001048011F0A68104B1A430A6001880F4AD0
:100240000A40028041680E4A0A43426081681943AD
:1002500081600C490A680C239A430A6001880222D3
:1002600091430180416819434160816808220A4333
:1002700082607047040000485555140001F90000E1
:100280003FFF3C000004004870B5012213044948B8
:10029000011F0C681C430C600C68A403FCD5464C81
:1002A0001125256004680460046804600F24A40418
:1002B0000568A54305600324E5030668AE430660B0
:1002C00055040668AE43066005681D430560036873
:1002D00003600368036012060B6813430B600A682F
:1002E0009201FCD50168A1430160016802220A4322
:1002F000026001680C220A40082AFAD170BDC0468B
:100300000120400405490A6802430A600520C0062E
:100310000921C9060A6802430A60704714100240A6
:1003200070B582B000230193009301221404214888
:10033000011F0D6825430D6054040D68254000958C
:10034000019D6D1C0195009D002D04D105252D03F7
:10035000019EAE42F1D10D68254201D0009200E02D
:100360000093009B012B23D1134B11241C600368C5
:100370000360036803607F23DB0305689D4305601A
:10038000230404681C43046012060B6813430B60CB
:100390000A689201FCD5016803229143016001685B
:1003A00002220A43026001680C220A40082AFAD19C
:1003B00002B070BD041002400020024080B5134816
:1003C000026801210A4302604268114B13404360F6
:1003D0000268104B134003608A0403689343036070
:1003E0003F221204436893434360C26A0F239A4337
:1003F000C262FF225432036B93430363426B8A430E
:10040000426300218160FFF78BFF80BD0010024036
:100410000CB8FF08FFFFF6FEFFF736FFFFF770FF8F
:10042000FFF7FCFEFEE70000380400080000002093
:0804300060060000F80000085E
:040000050800013DB1
:00000001FF
