:020000040800F2
:10000000600600201D0200082502000827020008E3
:10001000290200082B0200082D0200080000000041
:100020000000000000000000000000002F02000897
:100030003102000800000000330200083502000809
:1000400037020008370200083702000837020008AC
:10005000370200083702000837020008370200089C
:10006000370200083702000837020008370200088C
:10007000370200083702000837020008370200087C
:1000800037020008370200083702000800000000AD
:10009000000000000000000000000000370200081F
:1000A000370200083702000837020008370200084C
:1000B000370200083702000837020008370200083C
:1000C000370200083702000837020008370200082C
:1000D000370200083702000837020008000000005D
:1000E000370200083702000837020008000000004D
:1000F00000000000000000000000000037020008BF
:10010000000000003702000837020008370200082C
:1001100000000000000000000000000000000000DF
:1001200037020008370200083702000837020008CB
:10013000370200080000000000000000000000007E
:10014000000000000000000000000000370200086E
:10015000370200083702000837020008370200089B
:10016000370200083702000800000000000000000D
:10017000000000000000000000000000000000007F
:10018000000000003702000800000000000000002E
:10019000370200083702000800F002F800F02EF8DD
:1001A0000AA090E8000C82448344AAF10107DA45D2
:1001B00001D100F023F8AFF2090EBAE80F0013F0F6
:1001C000010F18BFFB1A43F0010318473405000064
:1001D000440500000023002400250026103A28BF13
:1001E00078C1FBD8520728BF30C148BF0B607047A9
:1001F0001FB500F07FFA1FBD10B510BD00F031F83B
:100200001146FFF7F5FF00F083F900F04FF803B453
:10021000FFF7F2FF03BC00F057F8000009488047E1
:1002200009480047FEE7FEE7FEE7FEE7FEE7FEE7D8
:10023000FEE7FEE7FEE7FEE704480549054A064BF0
:1002400070470000A9040008990100086000002020
:1002500060060020600200206002002070477047A6
:100260007047754600F02CF8AE46050069465346C7
:1002700020F00700854618B020B5FFF7DDFFBDE888
:1002800020404FF000064FF000074FF000084FF0FD
:10029000000B21F00701AC46ACE8C009ACE8C0098E
:1002A000ACE8C009ACE8C0098D46704710B50446FB
:1002B000AFF300802046BDE81040FFF7A8BF000064
:1002C000004870470000002001491820ABBEFEE73F
:1002D00026000200704700003148006840F480307A
:1002E0002F49086000BF2E48006800F40030002845
:1002F000F9D02B484030006840F080502849403108
:1003000008602848006840F440402649086040F2F0
:1003100003702549086022480830006820490831E8
:1003200008600846006840F480500860084600688D
:100330000860081F006840F48000091F0860084634
:10034000006840F00C0008600846006840F040007B
:100350000860084600680860081F006840F0807068
:10036000091F086000BF0E48006800F000700028F8
:10037000F9D00B480830006820F003000849083124
:1003800008600846006840F00200086000BF0448AA
:100390000830006800F00C000828F8D17047000011
:1003A0000038024000700040003C024003480068F2
:1003B00040F47000014908607047000088ED00E0DB
:1003C0000CB50020019000903348006840F4A02054
:1003D0003149086000BF3048006800F400300090E8
:1003E0000198401C0190009818B90198B0F5A04FF1
:1003F000F1D12948006800F4003010B101200090CC
:1004000001E0002000900098012844D122484030AB
:10041000006840F080502049403108601F48006863
:1004200040F440401D4908601B48083000681A49E4
:10043000083108600846006808600846006840F413
:10044000805008601648091F0860081F006840F0C7
:100450008070091F086000BF0F48006800F000703E
:100460000028F9D040F202700E4908600A480830AE
:10047000006820F003000849083108600846006859
:1004800040F00200086000BF03480830006800F038
:100490000C000828F8D10CBD003802400070004064
:1004A0000C184004003C024010B51548006840F4A8
:1004B0007000134908601348006840F001001149BA
:1004C000086000200F49083108600E4800680E4996
:1004D00008400C4908600D48091D0860081F0068A5
:1004E00020F48020091F0860002006490C310860B4
:1004F000FFF766FF4FF0006001498039086010BDCA
:1005000088ED00E000380240FFFFF6FE10300024C6
:100510002DED028B0024FFF749FFFFF7DDFE1C489D
:10052000006840F004001A4908601A48006840F06A
:10053000806018490860081D006820F40050091DFB
:100540000860081D006820F04060091D0860081D53
:10055000006820F04060091D086017E00D48143065
:10056000006880F400500B4914310860002401E059
:1005700000BF641C204600F01FF841EC180B9FEDF3
:10058000060B53EC102B00F02BF8F1D3E6E700003C
:1005900030380240000802400000000080840E4114
:1005A000491058BFC1F140415B1058BFC3F14043EF
:1005B0008B42EFF300807047B0FA80F310FA03F13A
:1005C0000AD0C3F11D0303F580634FEA41504FEA9F
:1005D000035202EBD12170474FF00000704700003A
:1005E00051EA030C17D41CF5801F58BFBCF5801FBF
:1005F00000F10680994218BF704708BF90427047CB
:1006000007D711F5801F58BF13F5801F19D49942E1
:100610007047894270471CF5801F08D5BCF5801FC4
:10062000F7D58B4218BF704708BF824270474FF41E
:10063000001C1CEB410F38BF1CEB430F01D28B4257
:10064000704770B500F008F8922449004FF000514F
:100650004FF08053FFF7A4BF0EF1020E2EF0030EF1
:100660005EF8046B364205D4012A43EB030515F509
:10067000001F12D8012841EB010C1CF5001F0CD8FB
:100680000ED14FEAD17C15F5001F0CEB4C0C0CF190
:10069000020C08BF4CEBD37C04E04FF0080C01E0E7
:1006A0004FEAD37C0CEB4C0526FA05F606F007065C
:1006B000B6F1040C06D20EEB860CBDE870404CF08F
:1006C000010C6047DFE80CF0090B02024FF000411B
:1006D0004FF00000A1F5002170BD19461046012819
:1006E00051EB010418BFD4F5001484BF002001F0C1
:1006F000004170BD4FF04070E1EE100A70470000FD
:10070000100700080000002060060000D401000867
:040000050800021DD0
:00000001FF
