:020000040800F2
:10000000600600201D0200082502000827020008E3
:10001000290200082B0200082D0200080000000041
:100020000000000000000000000000002F02000897
:100030003102000800000000330200083502000809
:1000400037020008370200083702000837020008AC
:10005000370200083702000837020008370200089C
:10006000370200083702000837020008370200088C
:10007000370200083702000837020008370200087C
:1000800037020008370200083702000800000000AD
:10009000000000000000000000000000370200081F
:1000A000370200083702000837020008370200084C
:1000B000370200083702000837020008370200083C
:1000C000370200083702000837020008370200082C
:1000D000370200083702000837020008000000005D
:1000E000370200083702000837020008000000004D
:1000F00000000000000000000000000037020008BF
:10010000000000003702000837020008370200082C
:1001100000000000000000000000000000000000DF
:1001200037020008370200083702000837020008CB
:10013000370200080000000000000000000000007E
:10014000000000000000000000000000370200086E
:10015000370200083702000837020008370200089B
:10016000370200083702000800000000000000000D
:10017000000000000000000000000000000000007F
:10018000000000003702000800000000000000002E
:10019000370200083702000800F002F800F02EF8DD
:1001A0000AA090E8000C82448344AAF10107DA45D2
:1001B00001D100F023F8AFF2090EBAE80F0013F0F6
:1001C000010F18BFFB1A43F0010318476404000035
:1001D000740400000023002400250026103A28BFE4
:1001E00078C1FBD8520728BF30C148BF0B607047A9
:1001F0001FB500F017FA1FBD10B510BD00F031F8A3
:100200001146FFF7F5FF00F0EBF900F04FF803B4EB
:10021000FFF7F2FF03BC00F057F8000009488047E1
:1002200009480047FEE7FEE7FEE7FEE7FEE7FEE7D8
:10023000FEE7FEE7FEE7FEE704480549054A064BF0
:10024000704700007905000899010008600000204F
:1002500060060020600200206002002070477047A6
:100260007047754600F02CF8AE46050069465346C7
:1002700020F00700854618B020B5FFF7DDFFBDE888
:1002800020404FF000064FF000074FF000084FF0FD
:10029000000B21F00701AC46ACE8C009ACE8C0098E
:1002A000ACE8C009ACE8C0098D46704710B50446FB
:1002B000AFF300802046BDE81040FFF7A8BF000064
:1002C000004870470000002001491820ABBEFEE73F
:1002D00026000200704700001C48006840F004003F
:1002E0001A4908601A48006840F0806018490860A0
:1002F000081D006820F40050091D0860081D0068F2
:1003000020F04060091D0860081D006820F0406072
:10031000091D08600D48006840F001000B490860A5
:100320000C48006820F003000A490860084640684D
:1003300020F0010048600846806820F003008860D3
:100340000846C06840F00100C8607047303802407D
:1003500000080240000002403048006820F480306D
:100360002E4908600846006820F48020086008468E
:10037000006840F48030086000BF2848006800F43E
:1003800000300028F9D025484030006840F0805007
:100390002249403108602248006840F4404020492A
:1003A000086040F203701F4908601C48083000686C
:1003B00040F48050194908310860081F00681A4944
:1003C00008401649091D0860084600681749084397
:1003D0001249091D0860081F006840F08070091F5D
:1003E000086000BF0D48006800F000700028F9D0D8
:1003F0000A480830006820F0030008490831086006
:100400000846006840F00200086000BF034808305A
:10041000006800F00C000828F8D17047003802404E
:1004200000700040003C02400080FCF00C184000CE
:100430001048006840F001000E4908600E4800684E
:1004400040F020500C4908600846406820F4C04045
:1004500048600846806840F0705088600846C06870
:1004600040F01050C8600846406A20F00101024880
:100470004162704730380240000002400348006883
:1004800040F47000014908607047000088ED00E00A
:100490000CB50020019000903348006840F4A02083
:1004A0003149086000BF3048006800F40030009017
:1004B0000198401C0190009818B90198B0F5A04F20
:1004C000F1D12948006800F4003010B101200090FB
:1004D00001E0002000900098012844D122484030DB
:1004E000006840F080502049403108601F48006893
:1004F00040F440401D4908601B48083000681A4914
:10050000083108600846006808600846006840F442
:10051000805008601648091F0860081F006840F0F6
:100520008070091F086000BF0F48006800F000706D
:100530000028F9D040F202700E4908600A480830DD
:10054000006820F003000849083108600846006888
:1005500040F00200086000BF03480830006800F067
:100560000C000828F8D10CBD003802400070004093
:100570000C184004003C024010B51548006840F4D7
:100580007000134908601348006840F001001149E9
:10059000086000200F49083108600E4800680E49C5
:1005A00008400C4908600D48091D0860081F0068D4
:1005B00020F48020091F0860002006490C310860E3
:1005C000FFF766FF4FF0006001498039086010BDF9
:1005D00088ED00E000380240FFFFF6FE10300024F6
:1005E000FFF74CFFFFF7B8FEFFF722FFFFF774FE9F
:1005F00013E00A48006900F0010030B9084800889B
:1006000040F400500649088007E00548801E008835
:1006100040F400500249891E0880EAE700000240C9
:100620001A0802404FF04070E1EE100A70470000D7
:10063000400600080000002060060000D401000809
:040000050800021DD0
:00000001FF
