:020000040800F2
:10000000600600203D01000863010008650100084A
:1000100000000000000000000000000000000000E0
:100020000000000000000000000000006701000860
:100030000000000000000000690100086B010008DA
:100040006D010008000000006D0100086D0100084E
:100050006D0100086D0100086D0100086D010008C8
:10006000000000006D0100086D0100086D0100082E
:100070006D0100086D0100086D010008000000001E
:100080006D01000800000000000000006D01000884
:100090006D0100086D0100086D0100086D01000888
:1000A0006D0100086D0100086D0100086D05000874
:1000B0006D01000800F002F800F030F80CA030C824
:1000C000083824182D18A246671EAB4654465D46D4
:1000D000AC4201D100F022F87E460F3E0FCCB6466E
:1000E0000126334200D0FB1AA246AB4633431847E1
:1000F00048050000580500000023002400250026C4
:10010000103A01D378C1FBD8520700D330C100D5D3
:100110000B6070471FB51FBD10B510BD00F04BF848
:100120001146FFF7F7FF00F079FA00F063F803B427
:10013000FFF7F2FF03BC00F069F800000F4880F3FE
:1001400008880F480168090E0E4A914205D10E48F1
:100150000E4901600E480F4901600F4880470F4863
:100160000047FEE7FEE7FEE7FEE7FEE7FEE70000EA
:100170000B480C490C4A0D4B7047000060060020EC
:10018000040000001F0000001810024001000000E1
:100190000000014000000000F1040008B500000864
:1001A0006000002060060020600200206002002045
:1001B000704770477047754600F024F8AE4605005A
:1001C00069465346C008C000854618B020B5FFF701
:1001D000CFFF60BC00274908B6460026C0C5C0C591
:1001E000C0C5C0C5C0C5C0C5C0C5C0C5403D49002B
:1001F0008D46704710B50446C046C0462046FFF7FE
:1002000096FF10BD004870470000002001491820EB
:10021000ABBEFEE7260002007047000013484069AD
:10022000012149040843114948610920C0060068BA
:10023000891508430921C9060860084680881021ED
:1002400088430921C906888008468068032109027D
:1002500008430921C90688600846C068FF210131AA
:1002600008430921C906C860704700000010024019
:10027000264840680C21084008280CD123484068D3
:10028000800880002149486000BF204840680C2158
:1002900008400028F9D11D480068012109060843DB
:1002A0001A49086000BF1948006801214906084042
:1002B0000028F8D01548406814494860084640684E
:1002C00011210904084311494860084600680121CA
:1002D000090608430D49086000BF0C480068012169
:1002E000490608400028F8D0084840680221084321
:1002F0000649486000BF054840680C2108400828AE
:10030000F9D1112002490860704700000010024036
:100310000020024008484069012149040843064979
:1003200048610920C00600680521C9060843092163
:10033000C90608607047000000100240324840695A
:100340000121490408433049486108468069012178
:10035000890308432C4988610920C00600680121EF
:10036000490508430921C906086008468068032139
:10037000090508430921C9068860084680880121CB
:10038000490288430921C90688800846C0680321BC
:10039000090508430921C906C8600846006801210B
:1003A000C90408430921C90608600846806803217A
:1003B000090508430921C90688600846808801218B
:1003C000490288430921C90688800846C06803217C
:1003D000090588430921C906C8600C480C49888171
:1003E000084600680D21084309490860084600686E
:1003F00020210843064908601B2001218140054A4D
:10040000116000BF70470000001002408813000018
:100410000038014000E100E00CB5002001900090A0
:10042000314800680121090408432F49086000BFD2
:100430002D48006801214904084000900198401CA3
:1004400001900098002804D10521090301988842F1
:10045000EED125480068012149040840002802D057
:100460000120009001E0002000900098012839D17F
:1004700011201E4908601C4840681B494860084616
:1004800040684860084640687F21C9038843164990
:100490004860084640681121090408431249486031
:1004A000084600680121090608430F49086000BF9B
:1004B0000D4800680121490608400028F8D00A4884
:1004C000406880088000084948600846406802216A
:1004D00008430549486000BF034840680C210840B4
:1004E0000828F9D10CBD0000001002400020024095
:1004F00010B51B48006801210843194908600846E7
:10050000406818490840164948600846006816497E
:10051000084013490860084600680121890488439F
:100520000F490860084640683F21090488430C4988
:1005300048600846C06A00090001C8620846006BAE
:10054000FF2154318843064908630846406B400840
:100550004000486300208860FFF75EFF10BD000088
:10056000001002400CB8FF08FFFFF6FE10B5164859
:10057000C06920210840002825D01348C06988435D
:100580001149C86110482030808830280AD10FA056
:1005900000F036F80920C0068069102108430921BF
:1005A000C906886108482030808831280BD10AA00C
:1005B00000F026F80920C0068069012109050843DA
:1005C0000921C906886110BD003801404C4544200E
:1005D0004F46460D0A0000004C4544204F4E0D0A80
:1005E0000000000000BF0549C969402211400029F0
:1005F000F9D002492031888070470000003801405E
:1006000010B50346002405E02146621CD4B2585CB4
:10061000FFF7E8FF185D0028F6D110BDFFF728FEB0
:10062000FFF778FEFFF7FAFDFFF788FE02E03220C1
:10063000FFF7D8FFFBE70000480600080000002095
:0806400060060000F80000084C
:040000050800013DB1
:00000001FF
